:020000040000FA
:100000000A284030A1004030A000A00B0528A10B19
:100010000328003407309F008316D73081008B01FE
:10002000C0308600FF3085008312860101308600D3
:1000300001200030860001200230860001200030BF
:100040008600012004308600012000308600012057
:100050000830860001200030860001201030860024
:100060000120003086000120203086000120003071
:10007000860001201030860001200030860001201B
:100080000830860001200030860001200430860000
:10009000012000308600012002308600012000305F
:0C00A00086000120013086000120162897
:02400E00613F10
:00000001FF
